:020000040800F2
:100000000050002099530008493B00084B3B000872
:100010004D3B00084F3B0008513B0008000000002A
:10002000000000000000000000000000533B00083A
:10003000553B000800000000573B0008593B0008F2
:10004000E1530008E1530008E1530008E1530008C0
:10005000E1530008E1530008E1530008E1530008B0
:10006000E1530008E1530008E1530008E1530008A0
:10007000E1530008E1530008E1530008E153000890
:10008000E1530008E1530008E1530008E153000880
:10009000E1530008E1530008E1530008E153000870
:1000A000E1530008E1530008E1530008E153000860
:1000B000653B0008E1530008E1530008E1530008E4
:1000C000E1530008E1530008E1530008E153000840
:1000D000E1530008753B0008E1530008E1530008B4
:1000E000E1530008E1530008E1530008000000005C
:1000F0000000000000000000000000000000000000
:0C01000000000000000000005FF808F1A3
:100110000348044B834202D0034B03B11847704796
:100120007000002070000020000000000548064913
:100130000B1AD90F01EBA301491002D0034B03B1F5
:100140001847704770000020700000200000000079
:1001500010B5064C237843B9FFF7DAFF044B13B10F
:100160000448AFF300800123237010BD700000200D
:1001700000000000E453000808B5044B1BB104491B
:100180000448AFF30080BDE80840CFE7000000005E
:1001900074000020E45300080A22002100F074BB20
:1001A0000A23002200F064BB70B50D4E0D4D761B86
:1001B000B61006D00024013455F8043B9847A642F7
:1001C000F9D1094E094D05F00DF9761BB61006D090
:1001D0000024013455F8043B9847A642F9D170BD7C
:1001E000DC640008DC640008E0640008DC640008EB
:1001F000024B0146186800F0AFB800BF00000020B5
:10020000024B0146186800F053B800BF0000002000
:10021000F0B4860746D0541E002A3CD0CAB203462A
:1002200002E014F1FF3436D303F8012B9D07F8D117
:10023000032C29D9CDB245EA05250F2C45EA054501
:1002400033D9A4F11006360903F1200707EB06178E
:1002500003F1100242E9045542E902551032BA4254
:10026000F8D1721C14F00C0F03EB021204F00F060D
:1002700013D0331F23F003030433134442F8045B09
:100280009342FBD106F003042CB1C9B21C4403F81D
:10029000011B9C42FBD1F0BC704734461346002C36
:1002A000F3D1F8E714460346C2E71A462646E0E7CC
:1002B00000293AD038B551F8043C0C1F002BB8BFC8
:1002C000E418054600F038FB224B1A682AB1A24216
:1002D0000DD921686018824221D0626028461C60D6
:1002E000BDE8384000F02ABBA34203D81A46536841
:1002F000002BF9D111685018A04217D022D82168DC
:100300006018834203BFD3E900030918C4E900134E
:10031000636054602846BDE8384000F00FBBD2E966
:1003200000020144C4E90012D8E770472068014484
:10033000501883421160EDD1D3E900030144C2E9B2
:100340000013E7E70C2328462B60BDE8384000F097
:10035000F5BA00BF8C000020F8B5CD1C25F00305D0
:1003600008350C2D38BF0C25002D064633DBA9427D
:1003700031D82A4F00F0E0FA3A6852B113685B1B9B
:1003800004D43FE023685B1B29D522465468002C27
:10039000F8D1796800293BD02946304600F040F872
:1003A000431C28D0C41C24F00304A04205D0211A09
:1003B000304600F035F801301DD02560304600F0A1
:1003C000BDFA04F10B0020F00700231DC21A01D072
:1003D0001B1AA350F8BD0C2200203260F8BD0B2B75
:1003E00005D8A242636811D05360E7E71446236042
:1003F0001C442560E2E70C233046336000F09EFA8F
:100400000020F8BD0B2BF1D8144653683B60D5E7AC
:10041000304600F005F87860BEE700BF8C00002091
:1004200038B50023064C05460846236001F02CFE33
:10043000431C00D038BD2368002BFBD02B6038BD97
:10044000F40B002080EA010C1CF0030F37D110F0F0
:10045000030C20F0030021F0030150F8042B08BF27
:1004600051F8043B0ED08CF0030C6FF07F434FEA41
:10047000CC0C23FA0CFC51F8043B42EA0C0243EA90
:100480000C0300BFA2F1013C9A4201BF2CEA020C0E
:100490001CF0803F50F8042B51F8043BF2D04FEA97
:1004A00002604FEA1222012828BFB0EB036F08BF99
:1004B0001B0AF4D003F0FF03000EC01A704710F0BF
:1004C000030F0AD010F8012B11F8013B012A28BFB5
:1004D0009A42F4D0A2EB030070474DF8045D50F847
:1004E000042B01F0030521F0030151F8043B022D18
:1004F00026D04DD822F07F45B5EB132FA2F1013C59
:100500002CEA020C0DD11CF0803C08BF51F8043BD2
:100510000AD185EA0205B5EB036F0CD150F8042B24
:10052000E8E74FEA13235BE03CF07F4C54D10B78B3
:100530004FEA126554E04FEA126503F0FF034FE003
:100540004FEA0245A2F1013C4FEA15452CEA020CA4
:10055000B5EB134F18D11CF0803C08BF51F8043B99
:1005600007D185EA0205B5EB034F09D150F8042BFA
:10057000E6E75FEA0C4C2FD10B884FEA12452FE0DB
:100580004FEA03434FEA12454FEA134328E000BF06
:1005900002F0FF05B5EB136FA2F1013C2CEA020C4F
:1005A0000DD11CF0803C08BF51F8043B0AD185EA0C
:1005B0000205B5EB032F0AD150F8042BE8E74FEA08
:1005C00013630DE012F0FF0F06D051F8043B4FEA21
:1005D000122523F07F4303E04FF0000020BC70475A
:1005E00005F0FF0203F0FF00012828BF904204BF7E
:1005F0002D0A1B0AF4D0A2EB000020BC704700BFFC
:1006000020F0030110F00300C0F1000051F8043B9A
:1006100000F1040C4FEACC0C6FF000021CBF22FA70
:100620000CF213434FF0010C4CEA0C2C4CEA0C4C2E
:10063000A3EB0C0222EA030212EACC1204BF51F827
:10064000043B0430F4D0C2F1000102EA0102B2FA24
:1006500082F2C2F11F0200EBD2007047174B30B597
:100660001C6883B0A26D054632B12846012303B051
:10067000BDE8304000F028B850200191FFF7B8FDE8
:1006800001990246A065A0B10023C0E90033C0E98A
:100690000233C0E904338361C0E90A33C0E90C3393
:1006A000C0E90E33C0E91033C0E912330377436267
:1006B000DBE7034B5721034800F0F0F8000000206F
:1006C000146400082C640008F0B418B307460D4603
:1006D00017F8016B01E0A64217D015F8014B002C6A
:1006E000F9D1E6B10C4617F8015B01E0002BF9D017
:1006F00014F8013B9D42F9D155B1002307F8013CA4
:10070000064617603046F0BC704763B13846DDE7F7
:100710002F46F5E710680028D8D10646F2E73046A4
:100720001660F0BC7047176006460370EAE700BF2A
:100730000123FFF7C9BF00BF012B2DE9F84F41D0BE
:10074000242B98463ED80F46DFF820C100E02F4604
:100750003D4615F8014B1CF8046016F00806F6D16A
:100760002D2C6FD02B2C12BFA34695F800B0BD1CCA
:10077000002B49D0102B5AD0002E14BF4FF0004947
:100780006FF000490027B9FBF8FEBC4608FB1E9A33
:1007900007E0E64513D332D001270CFB084C15F8CF
:1007A00001BBABF13004092C05D9ABF14104192C84
:1007B00011D8ABF13704A34215DD002FE9DA4FF071
:1007C000FF37ECE700F08EF816234FF0000C0360C3
:1007D0006046BDE8F88FABF16104192C03D8ABF18A
:1007E0005704A342E9DC002F26DB0EB1CCF1000C4C
:1007F000002AEDD06FBB11606046BDE8F88FA245BE
:10080000CADA4FF0FF37CAE7BBF1300F03D04FF021
:100810000A084346B0E72B7803F0DF03582B1AD1C0
:100820004FF0100895F801B043460235A4E7BBF13C
:10083000300F14D098469FE7222303603AB1CC468C
:10084000691ED8E795F800B00126BD1C90E7CC469C
:10085000BEE7E146F3E74FF0080843468CE72C7803
:1008600004F0DF04582CDBD0984685E705540008D7
:1008700062E700BF10B4034C13460A4601462068E5
:1008800010BC59E70000002010B4034C13460A4680
:100890000146206810BC4FE70000002000B50A4C5C
:1008A0000546206885B01C46C06852B1074BCDE9AB
:1008B000013200912B462246054900F029F800F04C
:1008C000AFFC044B1A46F2E7000000206064000809
:1008D00070640008EC63000808B513460022FFF7B7
:1008E000DDFF00BF014B1868704700BF000000200B
:1008F0000CB410B582B004AC54F8042B2346019418
:1009000000F060F802B0BDE8104002B0704700BFD0
:100910000EB430B582B005AC54F8042B054D014639
:1009200023462868019400F04DF802B0BDE830403D
:1009300003B0704700000020704700BF704700BF41
:100940009368013B002B93600FDA10B49469A342C3
:1009500008DB0A2906D01368581C10601970084675
:1009600010BC704710BC00F07BBB1368581C1060B3
:1009700019700846704700BF9BB1F8B513440F4685
:1009800006465D1E541E01E0AC4208D03A4614F8FB
:10099000011F3046FFF7D4FF431CF5D1F8BD0020FE
:1009A000F8BD0020704700BF936810B5144613B916
:1009B0005360184610BD00F01BFE0023C4E901334C
:1009C00010BD00BF2DE9F04F9FB08B4690461C46EE
:1009D000039018B18369002B00F0B980A34B9B45AD
:1009E00000F0BB80A24B9B4500F0C980A14B9B450A
:1009F00004BF039BD3F80CB0BBF80C30180740F1D0
:100A0000B480DBF81030002B00F0AF8030230021E1
:100A100020228DF8323098F8003005940B918DF833
:100A20003120954E0127002B00F08980252B00F006
:100A30001781454603E0252B00F0A58025466B78FD
:100A40006C1C002BF7D1B4EB080A78D04246534611
:100A500059460398FFF790FF013070D00B9B6A78DE
:100A600053440B93002A6AD000234FF0FF32013425
:100A70000693CDE908338DF85B301C93079206E0AE
:100A80002C46069B801B07FA00F01843069025466B
:100A9000052215F8011B304600F0EEFFAA4600289B
:100AA000EED1069BD90644BF20228DF85B201A07A1
:100AB00048BF2B22217848BF8DF85B202A2967D1B7
:100AC000059A1168043200290592C0F29E800991AE
:100AD0006178A51C2E2974D0684C0322204600F0B2
:100AE000CBFF002800F087804022069B001B02FA03
:100AF00000F00343069305F101082B7806221946FE
:100B00005F488DF8303000F0B7FF002800F0838098
:100B10005C4B002B72D005AB00935A465A4B06A98A
:100B20000398AFF300808146B9F1FF3F07D00B9BDC
:100B30004B440B9398F80030002B7FF477AFBBF851
:100B40000C305B0618D40B981FB0BDE8F08F00F096
:100B50002FFD464B9B457FF445AF039BD3F804B074
:100B6000BBF80C3018073FF54CAF5946039800F01E
:100B7000D7FA00283FF44AAF4FF0FF30E4E7039B79
:100B8000D3F808B038E7B4EB080A3FF46DAF5DE77F
:100B9000A1F13002092A88BFA2469BD8099B01E037
:100BA0002C460135297803EB830302EB4303A1F1C3
:100BB0003002092AAA46F3D92E2904F10205099325
:100BC0008AD19AF801102A292FD1059B0AF1020037
:100BD0001A680433002A079205939AF802100AF162
:100BE000030538DB254C82460322204600F044FFF3
:100BF00000287FF479AFA84655467EE7059B07336A
:100C000023F007030833059391E7494243F00203B9
:100C1000099106935CE705AB00935A461A4B06A967
:100C2000039800F0D3F881467EE70023A1F130025B
:100C3000092A079301D915E05546697803EB830328
:100C400002EB4303A1F13002092A05F1010AF3D9AD
:100C50000235079340E74FF0FF33824607933BE7A7
:100C6000444601E7AA46013536E700BF485500086B
:100C70002855000808550008A0640008A86400086A
:100C8000AC640008000000007909000810B4044CAE
:100C900013460A460146206810BCFFF793BE00BF0A
:100CA000000000202DE9F0470C460969A56891462F
:100CB0008D42B8BF0D46156094F8431006461F4696
:100CC000DDF8208011B16A1CC9F80020236899065C
:100CD0005CD5D9F800200232C9F80020236813F04F
:100CE000060F19461DD1E1688A1A002AD8BF194695
:100CF00017DD002504F1190A05E0E368D9F80020A2
:100D00009B1AAB420CDD0123524639463046C047A0
:100D1000013005F10105F0D14FF0FF30BDE8F0875B
:100D2000216894F84330003318BF01238A060AD59E
:100D30003021E21882F8431094F845105A1C2244DE
:100D400082F84310023304F1430239463046C0476B
:100D50000130E1D02368A26803F00603042B216967
:100D60001DD08A4226DD4FF00009521A9144002519
:100D70001A3401E04D451DDA01232246394630463A
:100D8000C047013005F10105F4D1C5E713F0060FA6
:100D900013D094F84330003318BF0123D3E7D9F8B8
:100DA0000000E3688A42A3EB000323EAE379DCDC7A
:100DB000002BDCDC0020BDE8F087E168D9F80020DA
:100DC0008A1A002AD8BF194693DCAAE72DE9F04316
:100DD0000C46097E85B06E2906461746984604F1F2
:100DE000430C0C986DD039D9732900F0F48044D9A4
:100DF000752900F00281782940F00F81782322685C
:100E0000DFF854E284F845300168150651F8043BD8
:100E1000016040F1A180D10744BF42F0200222606E
:100E2000002B00F093801022002184F843106068AA
:100E30000028A060C0F2C680216821F00401216072
:100E4000002B40F0A280002840F0BE806546082AB2
:100E500000F0AB80ACEB0503236141E0632900F0B7
:100E6000E3801AD8002938D0582940F0D68084F879
:100E700045102268DFF8E4E1C6E76F2900F0BD8085
:100E8000702940F0CA8078232268DFF8CCE142F074
:100E90002002226084F84530B6E7642902D069292F
:100EA00040F0BB8022680368110603F1040557D5A2
:100EB000196805600B46002959DB0A22DFF89CE11E
:100EC000B5E7036822681D1D6169056015061B688A
:100ED00002D4500600F1BB801960002365462361EF
:100EE000CDF800803B4603AA21463046FFF7DAFEE4
:100EF000013020D02A46236939463046C0470130A8
:100F000019D0226803989207E36819D51A1A002AA3
:100F100016DD002504F1190904E0E36803981A1AA4
:100F2000AA420DDD01234A4639463046C04701300A
:100F300005F10105F1D14FF0FF3005B0BDE8F083B8
:100F40009842B8BF184605B0BDE8F083216810226A
:100F500021F02001216067E7500648BF9BB25AE7A5
:100F60005106A5D5B3F9003005601946A3E72D2039
:100F700061685B42002984F84300A16002DB22F033
:100F8000040222600A22DFF8D4E0654600E00B4646
:100F9000B3FBF2F102FB11301EF80000934205F89A
:100FA000010DF4D2082A7FF455AF2368DB077FF5E3
:100FB00051AF626823699A423FF74CAF3023013D3D
:100FC0002B7047E7002BE0D19EF8003004F142057A
:100FD00084F842303BE703686268191D01601D68B0
:100FE0000021284600F048FD002832D0401B6060F8
:100FF0002061002384F8433072E72268036812F00E
:10100000800F03F104051AD01B6805606F290CBF1F
:1010100008220A22DFF844E006E7012384F84210A0
:10102000236104F14205E4E70122036804F142056B
:10103000191D1B68016084F842302261D9E712F063
:10104000400F0DBF1B6805601B880560DEE7198037
:1010500043E76068CCE700BFC8640008B4640008D8
:10106000F8B50D461446064608B1836943B3254BCF
:101070009C422AD0244B9C4229D0244B9C4208BF3E
:10108000F468A269A389A2601A0722D5236903B371
:1010900022686169D31AEDB299422F4629DD0133E6
:1010A000A168501C0139A1602060157062699A42E4
:1010B00016D0A389DB0701D50A2D11D03846F8BD1B
:1010C00000F076FA0F4B9C42D4D17468D9E7B4682B
:1010D000D7E72146304600F023F838B92369D7E72F
:1010E0002146304600F03AF90028E7D04FF0FF37AC
:1010F000E4E72146304600F031F90028F6D101231B
:101100002268CDE748550008285500080855000812
:10111000024B0A4601461868FFF7A2BF00000020F4
:101120003B4B70B51D6806460C460DB1AB69DBB193
:10113000384B9C421ED0384B9C424AD0374B9C4285
:1011400008BFEC68B4F90C2093B2190718D52069D0
:1011500008B313F001022CD000226369A2605B4245
:10116000A36160B3002070BD284600F021FA294B2E
:101170009C42E0D16C68B4F90C2093B21907E6D414
:10118000DD063CD5580726D4206942F00803A38128
:101190009BB20028DDD103F42072B2F5007FD8D0D5
:1011A0003046214600F01EFCA389206913F001029D
:1011B000D2D1990758BF6269A2600028D2D1B4F990
:1011C0000C301A06CFD543F04003A3814FF0FF3017
:1011D00070BDAC68B6E7616B51B104F1440399424C
:1011E00004D03046FFF764F8B4F90C2000236363A1
:1011F0000023206922F02402C4E90003C5E7092383
:1012000042F0400233604FF0FF30A28170BD00BF5A
:10121000000000204855000828550008085500081F
:1012200008B5062000F0F6FD012000F043FF00BFE6
:101230002DE9F0418F890C463A07804641D44B682E
:10124000002B59DDE66A002E53D0002317F480529C
:10125000D8F80050216AC8F8003051D10123404627
:10126000B047431C5FD0A789E66A216A7F0705D58E
:101270006268636B801A0BB1236CC01A02460023AC
:101280004046B047461C45D1D8F80030B4F90C2090
:10129000002B55D01D2B01D0162B5AD100222369CB
:1012A000C4E90032616BC8F8005011B304F1440383
:1012B000994202D04046FEF7FBFF00206063BDE884
:1012C000F0810E69AEB10D680E60B90714BF00233E
:1012D0006369AD1BA3600AE02B463246A76A216A08
:1012E0004046B8470028A5EB000506440ADD002D5E
:1012F000F2DC0020BDE8F0810B6C002BA2DCF8E7EB
:10130000606DB3E7A3894FF0FF3043F04003A38142
:10131000BDE8F081002322696360A3892260DA04BA
:10132000C0D56065BEE7D8F80030002B9BD01D2BE0
:101330000CD0162B0AD0A38943F04003A381D9E730
:101340002169C4E90013D304ACD5EAE7C8F800501A
:10135000CFE742F04002A281CCE700BF0B6923B384
:1013600010B5044682B008B18369BBB1104B9942F5
:1013700012D0104B994216D00F4B994208BFE1682A
:10138000B1F90C302BB1204602B0BDE81040FFF798
:101390004FBF002002B010BD6168F1E7019100F07D
:1013A00007F90199E2E7A168EAE70020704700BF6A
:1013B00048550008285500080855000820B1054B7D
:1013C00001461868FFF7CABF034B0449186800F0CC
:1013D000B3BA00BF00000020005400085D130008ED
:1013E00000207047014900F0A7BA00BF5D13000854
:1013F0000020704770B568254A1E05FB02F50E46B1
:1014000005F17401FEF7A8FF044640B100210C303D
:10141000666005F168022160A060FEF7F9FE2046D3
:1014200070BD00BF1E4B70B51D680646AB6943B367
:101430004835D5E90134013B05D51EE0013B5A1C76
:1014400004F1680419D0B4F90C20002AF6D1002563
:10145000144B6566C4E90055A560C4E90455A5614F
:101460002946E360082204F15C00FEF7D1FEC4E9DE
:101470000D55C4E91255204670BD2C682CB1254687
:10148000D7E7284600F010F8D2E704213046FFF7EE
:10149000B1FF044628600028F1D10C233360EAE74D
:1014A000005400080100FFFF2DE9F84F0023334AE4
:1014B000C0E9123312680365904208BF0123304926
:1014C00008BF836181620546FFF7ACFF686028466C
:1014D000FFF7A8FFA86028460024FFF7A3FF042316
:1014E0006E68E8602146F3607466C6E90044B46043
:1014F000C6E90444B46106F15C000822FEF788FEE8
:10150000DFF888B0AF68DFF888A0DFF88890DFF8F0
:1015100088801C4BC6E9086BC6E90AA9C6F830806A
:101520002146FB6008227C66C7E90044BC60C7E92D
:101530000444BC6107F15C00FEF76AFEEE68124BE2
:10154000C7E9087BC7E90AA9C7F830802146F360DC
:101550007466C6E90044B460C6E90444B46106F1A7
:101560005C000822FEF754FE0123C6E9086BC6E9B9
:101570000AA9C6F83080AB61BDE8F88F00540008B6
:10158000E51300080900010012000200851E000892
:10159000AD1E0008ED1E00080D1F0008024B034998
:1015A000186800F0C9B900BF005400085D130008B6
:1015B000836903B978E77047704700BF704700BF81
:1015C000704700BF704700BF024B0349186800F026
:1015D0008FB900BF00000020E1130008024B03494F
:1015E000186800F085B900BF00000020F113000862
:1015F0009368002B00F0FC802DE9F04FB1F90C301E
:101600000C469BB2190783B0824690462BD52269BF
:101610004AB313F00202D8F8006033D000273D46E9
:10162000D4F828B0216ADFF8C492C5B14D452B46E5
:101630003A4628BF4B465046D847002840F3CE8054
:10164000D8F8083007441B1A2D1AC8F80830002BA8
:1016500000F0B380D4F828B0216A002DE6D1D6E995
:1016600000750836E1E721465046FFF759FD00288E
:1016700040F03781B4F90C30D8F800609BB213F019
:101680000202CBD113F0010940F0B4804D46A768A7
:101690002068002D55D09A0540F1C080AF42BB466E
:1016A00000F2EE8013F4906F2FD0D4E9041707EB0B
:1016B0004707A0EB010B07EBD777681C7F10584456
:1016C000B8423A4684BF07463A465B0540F1F0808F
:1016D00011465046FEF740FE002800F0FC805A46B6
:1016E0002169019000F00EFAA289019B22F4906218
:1016F00042F08002A281A7EB0B0203EB0B006761B3
:10170000AB462F4623612060A2605A46494600F04E
:101710006FFA2368A2685B44AB460025D71BA7601D
:101720002360D8F80870D944A7EB0B07C8F80870F5
:10173000002F42D0B4F90C30A7689BB22068002D6E
:10174000A9D1D6E900950836A3E70BF1080353F8B1
:10175000047C9B4653F8086C0833002FF7D03A46B8
:101760000A21304600F088F9002854D00130A0EB5F
:1017700006094B4620682169BB4228BF3B46884288
:10178000626903D9A5681544AB421ADC9A4200F39A
:1017900081801346A56A3246216A5046A847051E35
:1017A0001CDDB9EB05096ED00120D8F808302E44B5
:1017B0005B1B7F1BC8F8083013BB002003B0BDE8DB
:1017C000F08F31462A4600F013FA236821462B4455
:1017D00023605046FFF7C2FD0028E2D0B4F90C3078
:1017E0004FF0FF3043F04003A38103B0BDE8F08F1A
:1017F0000020704733469146104617464E469B469A
:10180000002FA2D00028B4D13A460A21304600F079
:1018100033F90028AAD17B1C9946ABE723698342A0
:1018200017D36269AA4214D82F4BA76A9D4294BF6E
:101830002B466FF0004393FBF2F3216A02FB03F3A4
:1018400050464A46B847B0F1000BC7DDA5EB0B0583
:1018500067E7AF4228BF2F4649463A4600F0C8F92D
:10186000A3682268DB1B3A44BB46A3602260002BBE
:10187000ECD121465046FFF771FD0028E6D0ADE7D8
:101880002F46AB4641E721465046FFF767FD00284B
:101890008BD0A3E71A4631461D46019300F0A8F904
:1018A000A1682268019BC91A1344A160236078E7EC
:1018B000504600F003FA034600287FF41CAF21696C
:1018C0005046FEF7F5FC0C22B4F90C30CAF80020A3
:1018D00023F0800384E70C22B4F90C30CAF800200E
:1018E0007EE74FF0FF3069E7FEFFFF7F00FCFF7FE0
:1018F0002DE9F04110F148071AD088460026D7E9B3
:101900000154013D0ED4A389013D012B06D9B4F940
:101910000E30013302D02046C04706436B1C04F151
:101920006804F0D13F68002FE9D13046BDE8F0816E
:101930003E463046BDE8F0812DE9F84310F14806F7
:101940001ED0884607464FF00009D6E90154013DF4
:1019500010D4A389013D012B08D9B4F90E3001330D
:1019600004D021463846C04749EA00096B1C04F1FF
:101970006804EED13668002EE7D14846BDE8F8830A
:10198000B1464846BDE8F88370B50C46B1F90E1073
:1019900096B0002916461D4613DB6A4600F0E2FAAF
:1019A00000280EDB019A4FF4806302F47042A2F526
:1019B0000052B2FA82F2002052092A60336016B057
:1019C00070BD0022A3892A601B0604D54023002095
:1019D000336016B070BD4FF480630020336016B0E2
:1019E00070BD00BF8A890B46920706D5012103F11D
:1019F000470259611A601A61704770B582B001AB35
:101A00006A460C460646FFF7BFFF0099054630467A
:101A1000FEF7A2FCB4F90C3070B1164A0099B2621C
:101A2000019A43F08003A3812060C4E904018AB9CC
:101A30002B43A38102B070BD9A05FBD4012123F092
:101A4000030304F1470243F00203A38161612260B2
:101A50002261EFE73046B4F90E1000F097FA10B9A2
:101A6000B4F90C30E4E7A38923F0030343F0010346
:101A70001BB2DDE7E5130008830770B4CDB23DD09B
:101A8000541E0AB30378AB421FD0431C05E014F187
:101A9000FF3419D30278AA4217D013F0030F184667
:101AA00003F10103F3D1032C11D84CB30378AB42FB
:101AB0000BD00444431C02E00278AA4205D09C42A9
:101AC000184603F10103F7D1002070BC70470246AD
:101AD0000E02B6B22E4346EA06461368104673401D
:101AE000A3F1013121EA030313F0803F02F1040264
:101AF000DCD1043C032C1046EFD8D6E71446D2E7DD
:101B00002046E2E7844641EA000313F0030349D18B
:101B1000403A23D30B6803604B6843608B68836053
:101B2000CB68C3600B6903614B6943618B69836157
:101B3000CB69C3610B6A03624B6A43628B6A83623F
:101B4000CB6AC3620B6B03634B6B43638B6B836327
:101B5000CB6BC36340304031403ADBD230320BD3E1
:101B60000B6803604B6843608B688360CB68C3601D
:101B700010301031103AF3D20C3205D351F8043B37
:101B800040F8043B043AF9D2043208D0D2071CBF13
:101B900011F8013B00F8013B01D30B88038060463C
:101BA000704700BF082A13D38B07B1D010F003038E
:101BB000AED0C3F10403D21ADB071CBF11F8013BFE
:101BC00000F8013BA4D331F8023B20F8023B9FE729
:101BD000043AD9D3013A11F8013B00F8013BF9D29C
:101BE0000B7803704B7843708B7883706046704736
:101BF0008842F0B40DD98B1883420AD9841832B1C7
:101C0000224613F8014D994202F8014DF9D1F0BC7A
:101C100070470F2A0ED80346541E002AF7D001340D
:101C20000C44013B11F8012BA14203F8012FF9D11B
:101C3000F0BC704740EA01039B073AD1A2F11007BC
:101C40003F0901F1200606EB071601F1100300F130
:101C5000100453F8105C103344F8105C53F81C5C0B
:101C6000103444F81C5C53F8185C44F8185C53F8C2
:101C7000145CB34244F8145CEBD17B1C1B0112F0E2
:101C80000C0F194402F00F05034415D00E46043D15
:101C9000AD0803EB850C1C1F56F8047B44F8047F49
:101CA0006445F9D10135AD002B44294402F003020B
:101CB000B2E7541E0346B2E72A46ADE709B3F8B5CA
:101CC0001446CAB106460D4600F088F9A04202D378
:101CD0002F463846F8BD21463046FEF73DFB074605
:101CE0000028F6D022462946FFF70CFF3046294649
:101CF000FEF7DEFA3846F8BD2746FEF7D9FA384631
:101D0000F8BD1146FEF728BB10B580210446FEF74A
:101D100023FB606440B10022031F7C3043F8042F92
:101D20008342FBD1002010BD4FF0FF3010BD00BF3B
:101D3000436C0BB100207047E6E700BF1F2970B568
:101D4000054608D8436C16460C464BB153F82400A0
:101D500043F8246070BD16224FF0FF302A6070BD3A
:101D6000FFF7D2FF08B96B6CF0E74FF0FF3070BDA2
:101D70001F2938B5054620D8426C0C466AB152F886
:101D8000213053B1012B16D0591C10D0002520460C
:101D900042F824509847284638BD284600F070F88D
:101DA000224601462846BDE8384000F055B81623C3
:101DB00001202B6038BD002038BD16234FF0FF30C6
:101DC0002B6038BD1F2921D838B5436C05460C4619
:101DD00083B153F8242003EB84034AB1511C10D083
:101DE000012A0CD0002520461D609047284638BDAA
:101DF000012038BDFFF788FF28B96B6CE9E70320A5
:101E000038BD022038BD4FF0FF3038BD4FF0FF30F5
:101E1000704700BF024B01461868FFF7A9BF00BF1B
:101E200000000020024B0A4601461868FFF786BFF3
:101E300000000020034B1868436C0BB10020704772
:101E400062E700BF00000020024B01461868FFF760
:101E5000B9BF00BF0000002070B50D460023074C3D
:101E6000064611462846236000F0F6F8431C00D0D1
:101E700070BD2368002BFBD0336070BDF40B0020D5
:101E800000F0DAB810B50C46B1F90E1000F0AEF85B
:101E9000002803DB636D0344636510BDA38923F44D
:101EA0008053A38110BD00BF002070472DE9F04191
:101EB000B1F90C409846E3050D461746B1F90E10EE
:101EC000064609D424F48054AC8143463A46304651
:101ED000BDE8F04100F01EB80223002200F068F8CF
:101EE000B5F90C40B5F90E10ECE700BF10B50C4683
:101EF000B1F90E1000F05CF8A389421C0EBF23F468
:101F0000805343F480536065A38110BDB1F90E1076
:101F100000F016B8F8B50E460025084C11460746E5
:101F20001A463046256000F0BDF8431C00D0F8BDCD
:101F30002368002BFBD03B60F8BD00BFF40B0020F2
:101F400038B50023064C05460846236000F064F8C7
:101F5000431C00D038BD2368002BFBD02B6038BD5C
:101F6000F40B002070B50D460023074C06461146C1
:101F70002846236000F058F8431C00D070BD236849
:101F8000002BFBD0336070BDF40B002038B500236C
:101F9000064C05460846236000F056F8431C00D066
:101FA00038BD2368002BFBD02B6038BDF40B00201C
:101FB000F8B50E460025084C114607461A4630462D
:101FC000256000F051F8431C00D0F8BD2368002BB9
:101FD000FBD03B60F8BD00BFF40B002051F8043C7F
:101FE000181F002BBCBF0B58C0187047F8B50E4621
:101FF0000025084C114607461A463046256000F079
:102000003BF8431C00D0F8BD2368002BFBD03B609D
:10201000F8BD00BFF40B00205822024B4FF0FF30F8
:102020001A607047F40B00205822024B4FF0FF302B
:102030001A607047F40B00205822024B4FF0FF301B
:102040001A607047F40B00205822024B00201A60DF
:10205000704700BFF40B00205822024B4FF0FF30B6
:102060001A607047F40B00205822024B4FF0FF30EB
:102070001A607047F40B00205822024B4FF0FF30DB
:102080001A607047F40B0020044A05491368002BBE
:1020900008BF0B4618441060184670479400002093
:1020A000F80B00205822024B4FF0FF301A607047A7
:1020B000F40B0020FEE700BF70B54FF0FF0C4CF4AE
:1020C000E06C1CEA11541DBF1CEA135594EA0C0F76
:1020D00095EA0C0F00F0DEF82C4481EA030621EAB1
:1020E0004C5123EA4C5350EA013518BF52EA0335EC
:1020F00041F4801143F4801338D0A0FB02CE4FF09E
:102100000005E1FB02E506F00042E0FB03E54FF0CD
:102110000006E1FB03569CF0000F18BF4EF0010EC5
:10212000A4F1FF04B6F5007F64F5407404D25FEAC1
:102130004E0E6D4146EB060642EAC62141EA555174
:102140004FEAC52040EA5E504FEACE2EB4F1FD0CB6
:1021500088BFBCF5E06F1ED8BEF1004F08BF5FEA34
:10216000500E50F1000041EB045170BD06F00046E6
:1021700046EA010140EA020081EA0301B4EB5C0493
:10218000C2BFD4EB0C0541EA045170BD41F480118B
:102190004FF0000E013C00F3AB8014F1360FDEBFB0
:1021A000002001F0004170BDC4F10004203C35DA8C
:1021B0000C341BDC04F11404C4F1200500FA05F30F
:1021C00020FA04F001FA05F240EA020001F00042B0
:1021D00021F0004110EBD37021FA04F642EB060126
:1021E0005EEA430E08BF20EAD37070BDC4F10C0450
:1021F000C4F1200500FA04F320FA05F001FA04F214
:1022000040EA020001F0004110EBD37041F10001FF
:102210005EEA430E08BF20EAD37070BDC4F120050A
:1022200000FA05F24EEA020E20FA04F301FA05F272
:1022300043EA020321FA04F001F0004121FA04F21A
:1022400020EA020000EBD3705EEA430E08BF20EAEA
:10225000D37070BD94F0000F0FD101F00046400024
:1022600041EB010111F4801F08BF013CF7D041EAA6
:10227000060195F0000F18BF704703F000465200AA
:1022800043EB030313F4801F08BF013DF7D043EA7B
:102290000603704794EA0C0F0CEA135518BF95EA31
:1022A0000C0F0CD050EA410618BF52EA4306D1D1B8
:1022B00081EA030101F000414FF0000070BD50EAD7
:1022C000410606BF1046194652EA430619D094EA61
:1022D0000C0F02D150EA013613D195EA0C0F05D14B
:1022E00052EA03361CBF104619460AD181EA03019F
:1022F00001F0004141F0FE4141F470014FF0000057
:1023000070BD41F0FE4141F4780170BD81F00041A3
:1023100002E000BF83F0004330B54FEA41044FEACA
:10232000430594EA050F08BF90EA020F1FBF54EA65
:10233000000C55EA020C7FEA645C7FEA655C00F001
:10234000E2804FEA5454D4EB5555B8BF6D420CDDD2
:102350002C4480EA020281EA030382EA000083EA55
:10236000010180EA020281EA0303362D88BF30BDF5
:1023700011F0004F4FEA01314FF4801C4CEA11314B
:1023800002D0404261EB410113F0004F4FEA0333AA
:102390004CEA133302D0524263EB430394EA050F35
:1023A00000F0A780A4F10104D5F1200E0DDB02FAA4
:1023B0000EFC22FA05F2801841F1000103FA0EF238
:1023C000801843FA05F359410EE0A5F120050EF1FE
:1023D000200E012A03FA0EFC28BF4CF0020C43FA2F
:1023E00005F3C01851EBE37101F0004507D54FF03C
:1023F000000EDCF1000C7EEB00006EEB0101B1F58C
:10240000801F1BD3B1F5001F0CD349085FEA3000D1
:102410004FEA3C0C04F101044FEA445212F5800FDC
:1024200080F09A80BCF1004F08BF5FEA500C50F179
:10243000000041EB045141EA050130BD5FEA4C0C5C
:10244000404141EB0101013C28BFB1F5801FE9D2B9
:1024500091F0000F04BF01460020B1FA81F308BFDC
:102460002033A3F10B03B3F120020CDA0C3208DDA8
:1024700002F1140CC2F10C0201FA0CF021FA02F183
:102480000CE002F11402D8BFC2F1200C01FA02F1F3
:1024900020FA0CFCDCBF41EA0C019040E41AA2BF18
:1024A00001EB0451294330BD6FEA04041F3C1CDAE0
:1024B0000C340EDC04F11404C4F1200220FA04F000
:1024C00001FA02F340EA030021FA04F345EA0301AA
:1024D00030BDC4F10C04C4F1200220FA02F001FA6C
:1024E00004F340EA0300294630BD21FA04F02946EE
:1024F00030BD94F0000F83F4801306BF81F4801187
:102500000134013D4EE77FEA645C18BF7FEA655CF9
:1025100029D094EA050F08BF90EA020F05D054EACB
:10252000000C04BF1946104630BD91EA030F1EBFD0
:102530000021002030BD5FEA545C05D140004941D4
:1025400028BF41F0004130BD14F580043CBF01F5C7
:10255000801130BD01F0004545F0FE4141F47001AD
:102560004FF0000030BD7FEA645C1ABF1946104688
:102570007FEA655C1CBF0B46024650EA013406BF89
:1025800052EA033591EA030F41F4002130BD00BF48
:1025900090F0000F04BF0021704730B54FF4806405
:1025A00004F132044FF000054FF0000150E700BF86
:1025B00090F0000F04BF0021704730B54FF48064E5
:1025C00004F1320410F0004548BF40424FF00001D2
:1025D0003EE700BF42004FEAE2014FEA31014FEA15
:1025E00002701FBF12F07F4393F07F4F81F0605164
:1025F000704732F07F4208BF704793F07F4F04BFAF
:1026000041F40021704730B54FF4607401F000458B
:1026100021F000411CE700BF50EA010208BF7047EB
:1026200030B54FF000050AE050EA010208BF7047DC
:1026300030B511F0004502D5404261EB41014FF445
:10264000806404F132045FEA915C3FF4D8AE4FF04D
:1026500003025FEADC0C18BF03325FEADC0C18BF30
:10266000033202EBDC02C2F1200300FA03FC20FA81
:1026700002F001FA03FE40EA0E0021FA02F11444CE
:10268000BDE600BF4A0011D212F5001211D20DD5DD
:102690006FF47873B3EB62520ED44FEAC12343F068
:1026A000004343EA505323FA02F070474FF0000012
:1026B000704750EA013002D14FF0FF3070474FF0C1
:1026C000000070470000000000B583B0FFF760FF16
:1026D00009A3D3E90023FFF7EFFCFFF7D3FF0023A3
:1026E0000193019B834203D2019B01330193F8E7DD
:1026F00003B05DF804FB00BF9A999999999912402B
:102700000023024A1360024A136070479C000020B5
:1027100098000020064A13680649C8540133136024
:10272000B3F5006F02D3134600221A60704700BF52
:102730009C0000204C020020094B1B68094A1268CB
:1027400093420BD0084AD05C0133054A1360B3F5BD
:10275000006F04D3134600221A60704700207047B0
:10276000980000209C0000204C020020084B1B78A1
:10277000084A10780343084A10780343074A107840
:102780000343074A10780343064A107818437047FA
:10279000AF000020B2000020B0000020B1000020F7
:1027A000B3000020AE00002002680C4B9A4200D01B
:1027B000704710B501228021094802F0A0FC094CA5
:1027C0002078FFF7A7FF02F049F8074B18600122B5
:1027D0002146064801F0D9FE10BD00BF0038014077
:1027E000000C0140B8000020B4000020700B002055
:1027F00070470000172837D810B582B00C46012961
:1028000001D902B010BDC308184A1268ADF80420FF
:10281000120C8DF8062000F00700012202FA00F0E9
:10282000C3F1020302AA134403F8040C6423032235
:1028300001A90F4801F055FA84B1012208210D4881
:1028400002F05DFC0B4C01224021204602F057FCB7
:1028500000224021204602F052FCD2E7002208214B
:10286000044802F04CFCEDE7704700BFFC53000841
:10287000140B0020000801401B2834D810B51A4B57
:102880001B7813B9C0F11B00C0B2431CDBB2062891
:1028900009D9831CDBB20D2805D9C31CDBB214286F
:1028A00001D90430C3B2114C607800F0C002580066
:1028B000C0B21043607011B140F001006070642339
:1028C00002220A490A4801F00CFA0A4C01224FF48C
:1028D0008041204602F013FC00224FF48041204644
:1028E00002F00DFC10BD704714010020AC00002068
:1028F000BC000020000C014038B5344B1A78DAB91E
:1029000003284CD8324B5D7805F03F055D701C788C
:1029100004F0C0041C702F4B1B78181AC0B2013889
:10292000C0B249B1032807D8DFE800F002443F3ABB
:1029300045F04005264B5D70012A1DD107282ED891
:10294000234B5C7844F0C0045C701A7842F03F027C
:102950001A7089B110B904F0BF045C7001282ED040
:10296000012809D90238C0B2012303FA00F0C0B22D
:1029700022EA0002164B1A706423022214491648F8
:1029800001F0AFF9154C01224FF48041204602F0CE
:10299000B6FB00224FF48041204602F0B0FB38BD68
:1029A00065F07F050A4B5D70C6E744F00104084BF3
:1029B0001C70C1E744F00204054B1C70BCE70449DD
:1029C0004B7803F07F034B70CAE700BF140100206F
:1029D000AC0000206C0B0020BC000020000C01406B
:1029E0002DE9F041864698469DF81830A8EB020084
:1029F00000282ADD43B1012B29D1174B06274BB301
:102A00004FF0000C60461CE0144B0827F7E74FF02E
:102A1000000C0D5401300134A74211DD1EF8026094
:102A200007FB06455D5D002DF1D1202E05D00CF190
:102A3000010CBCF1010FEEDCEBE74FF0000CE8E716
:102A40000132424504DA0024E6E7002000E00020DD
:102A5000BDE8F0810020FBE7C45D0008C455000814
:102A60002DE9F0418CB00446FDF7CAFD00231E4657
:102A70001D4605E05E1C264411780A290DD001335D
:102A800083420DD2E218E15C2229F5D10021E15404
:102A90000135EDB2002EEFD1ECE700211170EEE729
:102AA00015B1022D40F08483AB492046FDF7D6FDD9
:102AB0000290002408E0A8490020FDF7CFFD0CABF0
:102AC00003EB840343F8280C0CAB03EB840353F8AB
:102AD000283C13B10134092CEDDD092C00DCF6B1E2
:102AE0008EB1E3B2092B04D80CA901EB830242F8A2
:102AF000286C082B07D8E3B201330CAA02EB83033E
:102B0000002243F8282C00240CAB03EB840353F879
:102B1000283C5BB1092C09D80134E4B2F4E7002267
:102B20000CAB03EB840343F8282CD9E7002C00F00E
:102B30004283042C24D0022C2AD0022C30D0022C28
:102B400035D0012C3BD0042C41D0042C47D0042C90
:102B500040F0348381490298FDF774FC002840F06E
:102B600030830624013C072C00F22E83DFE814F0AA
:102B70003F0051005F00B300810051029601BB008D
:102B800077490298FDF75EFC0028D4D10524E9E7D7
:102B900074490298FDF756FC0028CED10124E1E7E4
:102BA00071490298FDF74EFC0028DBD0C7E76F495A
:102BB0000298FDF747FC0028C3D10324D2E76C49F3
:102BC0000298FDF73FFC0028BDD10424CAE76949FB
:102BD0000298FDF737FC0028B7D10724C2E7664901
:102BE0000298FDF72FFC0028B1D10824BAE703981A
:102BF000FDF7D2FA044630B1012204215F4802F009
:102C00007EFA00246BE0002204215C4802F077FA8F
:102C100065E00398FDF7C0FA044620B1584B012245
:102C20001A7000245BE0574B01221A7057E003989A
:102C3000FDF7B2FA044688B9024612E0524B1B680F
:102C40004FF0FF3143F822100132504B1B78C3EB99
:102C5000C303B2EB830FF1DB002440E00022F4E772
:102C600001324A4B1B78C3EBC303B2EB830FF7DB94
:102C700035E00398FDF790FA05460498FDF78CFAC5
:102C80000646424B1B78C3EBC3039B00013BAB42A0
:102C9000C0F09D82132801D9002420E00598FDF79B
:102CA0007BFA044658B1384B1A68012303FA06F040
:102CB00052F82530034342F8253000240FE0324B10
:102CC0001A68012303FA06F052F8253023EA0003BC
:102CD00042F8253003E02E4B01221A7000242046D2
:102CE0000CB0BDE8F081059D2846FDF789FC041E67
:102CF00001DC0024F3E70398FDF74EFA8046012833
:102D000001D90024EBE7049E3046FDF745FAC1B235
:102D100036784C2E40D0432E41D0522E41D01B4A03
:102D20001278C2EBC202B1EB820F3CDB0024D6E783
:102D3000184A0021D1540133C72BF9DD5FFA88F31B
:102D400000932346002213492846FFF749FE044614
:102D50000028C4D0002332E0A4640008AC55000869
:102D6000685500087055000878550008805500081F
:102D70008C55000894550008A05500080008014033
:102D8000B3000020AE000020E00100206C0B00200A
:102D9000AF0000201801002000270023CCE7002707
:102DA000FBE70027F9E70E460127F6E7A14A11687D
:102DB00051F8232022F47F6241F8232001339E4AF8
:102DC0001278C2EBC202B3EB820FEFDB9B4B1B7896
:102DD0004BBB994B1B78C3EBC3029000B4EB820F43
:102DE00023DA5200D2B204EBD47149104942C9B27D
:102DF0000A44D2B2A04200DC04464C2E17D0522E18
:102E000017D007B9164600232AE08A4B1B68002119
:102E100043F822100132884B1B78C3EBC303B2EB9B
:102E2000830FF2DBD5E70022F5E70022E2E700227C
:102E3000E5E7A04207DBC3EBC3039B00DBB2E2B2D2
:102E40009B1ADAB2DDE70022DBE77A4A10687C4A97
:102E5000D55C50F8212042EA051240F821200133C8
:102E60009C4207DDF118744A1278C2EBC202B1EB42
:102E7000820FEADB734B1B782BB9704B1B784BB17D
:102E8000714B01221A70714B01221A7000246B4B96
:102E90001C7024E76E4B01221A70F4E7059D28464A
:102EA000FDF7AEFB041E01DC002418E70398FDF7D4
:102EB00073F98046012801D9002410E7049E3046AA
:102EC000FDF76AF9C1B236784C2E21D0432E22D0BC
:102ED000522E22D0584A1278C2EBC202B1EB820FB6
:102EE0001DDB0024FBE6564A0021D1540133C72BD9
:102EF000F9DD5FFA88F30093234600225049284603
:102F0000FFF76EFD044600283FF4E9AE002312E00F
:102F100000270023EBE70027FBE70027F9E70E4631
:102F20000127F6E7434A116851F8232022F0FF02F7
:102F300041F823200133404A1278C2EBC202B3EBBE
:102F4000820FEFDB414B1B784BBB3B4B1B78C3EB3A
:102F5000C3029000B4EB820F23DA5200D2B204EB2A
:102F6000D47149104942C9B20A44D2B2A04200DC2D
:102F700004464C2E17D0522E17D007B91646002300
:102F800029E02C4B1B68002143F8221001322A4B08
:102F90001B78C3EBC303B2EB830FF2DBD5E7002250
:102FA000F5E70022E2E70022E5E7A04207DBC3EBFA
:102FB000C3039B00DBB2E2B29B1ADAB2DDE7002268
:102FC000DBE71C4A10681E4AD55C50F821202A43D2
:102FD00040F8212001339C4207DDF118164A12788F
:102FE000C2EBC202B1EB820FEBDB164B1B782BB9A5
:102FF000164B1B784BB1144B01221A700024134B53
:103000001C700E4B01221A7069E6124B01221A70D5
:10301000F4E7059D2846FDF7F3FA041E01DC0024C1
:103020005DE60398FDF7B8F88046012814D900241E
:1030300055E600BFE00100206C0B0020B900002025
:1030400018010020A9000020AF000020BA000020D5
:10305000B2000020B1000020049E3046FDF79CF82D
:10306000C1B236784C2E21D0432E22D0522E22D0FF
:10307000584A1278C2EBC202B1EB820F1DDB00246A
:103080002DE6554A0021D1540133C72BF9DD5FFAF3
:1030900088F30093234600224F492846FFF7A0FCFF
:1030A000044600283FF41BAE002312E00027002353
:1030B000EBE70027FBE70027F9E70E460127F6E7D5
:1030C000464A116851F8232022F47F4241F8232018
:1030D0000133404A1278C2EBC202B3EB820FEFDB3E
:1030E0003F4B1B784BBB3B4B1B78C3EBC3029000A1
:1030F000B4EB820F23DA5200D2B204EBD471491040
:103100004942C9B20A44D2B2A04200DC04464C2E65
:1031100017D0522E17D007B9164600232AE02F4B9E
:103120001B68002143F8221001322A4B1B78C3EBA5
:10313000C303B2EB830FF2DBD5E70022F5E70022F1
:10314000E2E70022E5E7A04207DBC3EBC3039B00F5
:10315000DBB2E2B29B1ADAB2DDE70022DBE71F4AFC
:1031600010681D4AD55C50F8212042EA052240F83B
:10317000212001339C4207DDF118164A1278C2EB78
:10318000C202B1EB820FEADB164B1B782BB9144B52
:103190001B784BB1144B01221A700024104B1C7089
:1031A000124B01221A709AE5114B01221A70F4E7B2
:1031B0004FF0FF3493E54FF0FF3490E54FF0FF34CC
:1031C0008DE54FF0FF348AE54FF0FF3487E50024AA
:1031D00085E500BF6C0B002018010020E0010020F5
:1031E000BA000020A9000020AF000020B900002094
:1031F000B0000020094B1B6853F82020012303FA7C
:1032000001F10A40064B1B6853F8203019408A42EE
:1032100001D000207047FF20704700BFE001002070
:10322000E40100202DE9F84F06468A469346994668
:1032300001224FF48071394801F061FF384B1B784F
:10324000C3EBC3039B00DBB2364A12787AB100218C
:10325000012A0ED0B3425ED953455CD956455AD89F
:10326000594558D9494556D9CB454AD953E010213B
:10327000EEE71321EEE7012736E0B4082A48A0FB69
:1032800004345FFA84F8A4EBC40406EB840087F0EE
:103290000101C0B2FFF7F0FA39462846FFF7AAFA53
:1032A00001214046FFF728FB204C01221021204637
:1032B00001F025FF4FF47A70FFF706FA0122102182
:1032C000204601F01CFF00214046FFF715FB0135A9
:1032D000EDB24D4513D8164B1B6853F82620012339
:1032E000AB401A42C7D10027124B1B78002BC4D029
:1032F00029463046FFF77EFF0028E8D1BDE70136BA
:10330000F6B2564501D85D46E3E700224FF48071DE
:10331000024801F0F4FEBDE8F88F00BF000C014048
:103320006C0B002014010020254992240008014064
:10333000E0010020A80000200B4B1B7803B9704768
:1033400000230A4A1278C2EBC20291008B420ADAC9
:10335000074A12680749096851F8231042F82310F8
:103360000133DBB2EDE77047A80000206C0B0020B2
:10337000E4010020E0010020FEE7000000B591B06C
:10338000012206924FF480330793002108910A929C
:1033900002220D920E934FF4E0130F9306A801F052
:1033A0008DFA08BB0F23019302210291002303939E
:1033B0004FF480620492059301A801F0A5FCC0B906
:1033C00001F060FD0D4BA3FB0030800901F03CFFD4
:1033D000042001F04FFF002211464FF0FF3001F0B2
:1033E000F3FE11B05DF804FB40F225210448FFF71D
:1033F000C3FF40F233210248FFF7BEFFD34D6210F6
:10340000B855000810B501F00BFAFFF7B7FF00F050
:1034100043FA00F0B5FA00F0D9FA00F03FFB01F0F2
:1034200065FF0821A64801F063FE00283AD1A54BAC
:1034300001221A701021A24801F05AFE002835D14D
:10344000A14B04221A7020219D4801F051FE88BB37
:103450009E4B01221A704021994801F049FE68BB39
:103460009B4B01221A7001224FF48071994801F0A0
:1034700046FE00224FF48051914801F040FE924BED
:103480001C78C4EBC40424012046FCF7B1FE924A28
:103490001060B8B12046FCF7ABFE904A106038B31C
:1034A000002346E0874B00221A70C3E7864B0322B5
:1034B0001A70C8E7854B00221A70CCE7844B0022B3
:1034C0001A70D0E7864C01224FF40051204601F0DB
:1034D00016FE4FF4FA7001F0C7F900224FF40051C4
:1034E000204601F00CFE4FF4FA7001F0BDF9E9E757
:1034F0007B4C01224FF40051204601F000FE4FF4B6
:10350000FA7001F0B1F900224FF40051204601F0A9
:10351000F6FD4FF4FA7001F0A7F9E9E76E4A116879
:10352000002241F823206D49096841F82320013326
:10353000DBB2654A1278C2EBC202B3EB820FEDDB5D
:10354000FFF7DEF801226749674801F01EF82520E1
:1035500001F06EFEF1E05D4A1478002313705A4AC0
:103560001278C2EBC201B3EB810F08DA5A4A126833
:103570004FF0FF3142F823100133DBB2EFE7514B3C
:103580001978D1B10023012919D0013BC2EBC20146
:1035900089000139DBB20022C9B21046FFF742FEB2
:1035A0004A4B1C700123514A1370514A1370514BFE
:1035B00000221A70FFF7C0FECCE01023E3E71323CC
:1035C000E3E7424A1478002313703F4A1278C2EBB3
:1035D000C201B3EB810F07DA3F4A1268002142F8BB
:1035E00023100133DBB2F0E7364B1978C9B1002361
:1035F000012918D0013BC2EBC20189000139DBB2BD
:103600000022C9B21046FFF70DFE304B1C7000239C
:10361000364A1370364A1370374A1370FFF78CFE20
:10362000A4E01023E4E71323E4E701F017F9334B98
:103630001B68984240F2A1800421264801F058FD01
:1036400058B100220421234801F059FD01F006F988
:1036500000F5C870294A10608FE0012204211D483E
:1036600001F04DFDF2E7102390E0132391E0164B9B
:103670001B78C3EBC301890001390B230422C9B2B3
:103680000020FFF7CFFD1E4B00221A70FFF754FEFB
:1036900096E00D4B1B78C3EBC3018900013907236A
:1036A0000022C9B21046FFF7BDFD164B00221A706A
:1036B000FFF742FE89E0102290E0132291E000BF64
:1036C000000C0140140100206C0B0020A800002019
:1036D000A900002000080140E0010020E4010020D2
:1036E00000100140B8000020700B0020BA0000203C
:1036F000B9000020B3000020AE000020A000002090
:10370000B2000020B1000020134600221A6001F030
:10371000A5F8554B1B6803F1FA02904205D923B175
:10372000FFF724F8002800F08A8001F097F84E4B4C
:103730001B683233984200F28C804FF480614B4812
:1037400001F0D6FC00283FF406AF494B1B78002B54
:103750007FF401AF0221454801F0CAFC00283FF484
:1037600030AF444B1B78002B7FF42BAF01213F4837
:1037700001F0BEFC00283FF458AF3F4B1B78D3B19B
:103780003E4B1A78002A3FF46EAF1423012A3FF40F
:103790006CAF013B3A4A1278C2EBC2018900013991
:1037A000DBB20022C9B21046FFF73CFD324B0022CB
:1037B0001A70FFF7C1FD334B1B78002B7FF457AF16
:1037C000314B1B78002B7FF464AF304B1B78DBB19F
:1037D0002A4B1B78002B3FF46EAF1422012B3FF4D1
:1037E0006CAF531E083A26490978C1EBC101890024
:1037F0000139DBB2D2B2C9B20020FFF713FD234B6F
:1038000000221A70FFF798FDFEF796FF01E0FEF721
:1038100093FF00283FF47BAF1D4A13681D49C8542D
:1038200001331360632B3FF66FAF0A28EFD11948BD
:103830000022C254164B1A60FFF712F967E7144BC7
:1038400000221A60FEF75CFF01F008F8064B1860D2
:103850006BE700228021054801F051FC00F0FEFFDB
:10386000014B186069E700BFB4000020000C014064
:10387000B3000020AE000020AF00002014010020A3
:103880006C0B0020B2000020B1000020B00000202E
:10389000A4000020E80100202DE9F04389B0344B5A
:1038A0009A6942F010029A619A6902F0100200923D
:1038B000009A9A6942F020029A619A6902F0200205
:1038C0000192019A9A6942F004029A619A6902F09F
:1038D00004020292029A9A6942F008029A619B6974
:1038E00003F008030393039BDFF88C9000224FF44E
:1038F0000051484601F003FCDFF8808000224FF4BD
:10390000AF71404601F0FBFB1A4E00224FF4B34169
:10391000304601F0F4FB4FF4005304930125059564
:10392000002406940227079704A9484601F0D0FA1C
:103930004FF4AF73049305950694079704A9404686
:1039400001F0C6FA40F27B4304930594069504A95E
:10395000304601F0BDFA4FF4B34304930595069445
:10396000079704A9304601F0B3FA09B0BDE8F08327
:1039700000100240000C014000100140000801400E
:1039800008B50F480F4B03604FF482734360002368
:103990008360C360036143614FF40072826120223F
:1039A000C2610362436283620A23C36200F068FA61
:1039B00000B908BD46210448FFF7DEFCF9E700BF67
:1039C000140B002000300140C463000808B50F4804
:1039D0000F4B03604FF48273436000238360C36026
:1039E000036143614FF4007282611822C261036275
:1039F000436283620A23C36200F042FA00B908BD41
:103A00005C210448FFF7B8FCF9E700BFBC000020C8
:103A100000380040C463000800B587B003681A4A44
:103A2000934205D0194A934217D007B05DF804FBC2
:103A3000174B9A6942F480529A619B6903F4805350
:103A40000093009BA0230293022303930323059377
:103A500002A9104801F03CFAE7E70D4BDA6942F49D
:103A60008042DA61DB6903F480430193019B4FF4E8
:103A700020430293022303930323059302A90648DC
:103A800001F026FAD1E700BF0030014000380040C5
:103A90000010024000080140000C014008B50B482E
:103AA0000B4B03604FF49643436000238360C36075
:103AB00003610C2242618361C36100F037FD00B9EC
:103AC00008BD42210348FFF757FCF9E7700B0020BF
:103AD00000380140D06300080268194B9A4200D0B8
:103AE000704730B587B003F558439A6942F4804275
:103AF0009A619B6903F480430193019B4FF4007327
:103B0000029302230393032305930E4D02A9284633
:103B100001F0DEF94FF48063029300240394012343
:103B2000049302A9284601F0D3F922462146252014
:103B300001F04AFB252001F07BFB07B030BD00BF40
:103B400000380140000801407047FEE7FEE7FEE74D
:103B5000FEE770477047704708B500F073FE01F04C
:103B60009AFB08BD08B5024800F08CFA08BD00BFFA
:103B7000B40B002008B5024800F094FD08BD00BF5A
:103B8000700B002000B583B0244B9A6942F001020B
:103B90009A619A6902F001020092009ADA6942F091
:103BA0008052DA61DB6903F080530193019B0320AB
:103BB00001F0F8FA002211466FF00B0001F004FB4F
:103BC000002211466FF00A0001F0FEFA00221146B1
:103BD0006FF0090001F0F8FA002211466FF00400BE
:103BE00001F0F2FA002211466FF0030001F0ECFA46
:103BF000002211466FF0010001F0E6FA00221146A2
:103C00004FF0FF3001F0E0FA054A536823F0E0631B
:103C100043F00073536003B05DF804FB00100240F2
:103C2000000001402DE9F0410646884617461D4632
:103C30003BE02DB100F012FE069BC01AA84234D31F
:103C40003268536823F0E00353607368B3F5827FF2
:103C50000BD0B36AB3F5005F14D0012386F851305E
:103C6000002386F85030032027E0B368B3F5004FF7
:103C700002D0B3F5806FECD13268136823F04003B3
:103C80001360E6E73268136823F400531B041B0C2F
:103C900013603268136843F400531360DDE70124B6
:103CA000BC4209D0B5F1FF3FC3D13468A46838EAFB
:103CB0000403F4D00024F3E70020BDE8F08110B540
:103CC00082B004460B46009200228021FFF7AAFF33
:103CD00008B902B010BD636D43F020036365032093
:103CE000F7E72DE9F04385B01D4690F85030012BE1
:103CF00000F0C48004460E469146012380F85030FF
:103D000000F0ACFD804694F85170FFB2012F40F0F6
:103D1000AA80002E00F0A880B9F1000F00F0A48066
:103D2000032384F85130002363652663A4F834909C
:103D3000A4F83690A363A387E38763642364A3682E
:103D4000B3F5004F1CD023681A6812F0400F03D15E
:103D50001A6842F040021A60E368B3F5006F15D0AC
:103D600063681BB1E38E9BB2012B41D1236816F827
:103D7000012B1A73E38E9BB2013B9BB2E38637E0C3
:103D80002268136843F480431360DCE763681BB167
:103D9000E38E9BB2012B0DD1236836F8022BDA603B
:103DA000E38E9BB2013B9BB2E38603E0D5B1B5F154
:103DB000FF3F11D1E38E9BB2002B32D023689A686B
:103DC00012F0020FF2D036F8022BDA60E38E9BB2CB
:103DD000013B9BB2E386EDE700F040FDA0EB08005D
:103DE000A842E7D303273FE0CDB1B5F1FF3F10D1A3
:103DF000E28E92B2AAB123689A6812F0020FF3D051
:103E000016F8012B1A73E28E92B2013A92B2E28650
:103E1000EEE700F023FDA0EB0800A842E8D303275B
:103E200022E0CDF800802B46012202212046FFF738
:103E3000F9FE08B1032717E0424629462046FFF75E
:103E40003EFF034660B9A26832B903922268D16886
:103E5000039192680392039A626D2AB91F4603E0A8
:103E60002023636500E00227012384F851300023FA
:103E700084F85030384605B0BDE8F0830227F9E7F2
:103E800000283CD010B504460023836290F85130DE
:103E9000002B31D0022384F851302268136823F0BC
:103EA000400313606368A2681343E2681343226906
:103EB000134362691343A26902F400721343E26977
:103EC0001343226A1343A16A22680B431360638B76
:103ED00003F00403616A22680B4353602368E26ABB
:103EE0001A612268D36923F40063D36100206065FE
:103EF000012384F8513010BDFFF78EFDCAE7012081
:103F0000704730B4036A056A25F0010505628469CB
:103F100024F0F00444EA021423F00A030B43846102
:103F2000036230BC704730B4056A25F010050562A5
:103F30008469036A24F4704444EA023423F0A00341
:103F400043EA01138461036230BC7047836823F045
:103F5000700341F0070119438160704710B4846811
:103F600024F47F4442EA03220A432243826010BCC5
:103F7000704790F83C30012B7ED010B504460123E9
:103F800080F83C30022380F83D300268936823F4C7
:103F90007F4323F0770393600B68502B49D019D8E7
:103FA000202B5FD00DD9302B61D0402B3AD1CA687D
:103FB00049680068FFF7A5FF40212068FFF7C6FFAA
:103FC00030E0002B49D0102B2CD110210068FFF7D6
:103FD000BDFF27E0B3F5805F1FD00ED9B3F5005FBA
:103FE00020D1CB684A6889680068FFF7B7FF22686C
:103FF000936843F48043936014E0602B23D0702BCC
:1040000010D1CB684A6889680068FFF7A7FF22686B
:10401000936843F07703936004E00268936823F0A9
:1040200007039360012384F83D30002084F83C00AE
:1040300010BDCA6849680068FFF763FF5021206817
:10404000FFF784FFEEE7CA6849680068FFF76BFF77
:1040500060212068FFF77AFFE4E700210068FFF79E
:1040600075FFDFE720210068FFF770FFDAE73021F6
:104070000068FFF76BFFD5E7022070477047704775
:104080007047704710B5044603681A6912F0020FB2
:1040900011D0DA6812F0020F0DD06FF002021A612F
:1040A0000123037703689B6913F0030F70D0FFF7B8
:1040B000E6FF0023237723681A6912F0040F12D059
:1040C000DA6812F0040F0ED06FF004021A610223B6
:1040D000237723689B6913F4407F5FD02046FFF766
:1040E000CEFF0023237723681A6912F0080F12D03D
:1040F000DA6812F0080F0ED06FF008021A6104237C
:1041000023772368DB6913F0030F4ED02046FFF7B7
:10411000B6FF0023237723681A6912F0100F12D01C
:10412000DA6812F0100F0ED06FF010021A61082337
:1041300023772368DB6913F4407F3DD02046FFF7E7
:104140009EFF0023237723681A6912F0010F03D022
:10415000DA6812F0010F36D123681A6912F0800F65
:1041600003D0DA6812F0800F34D123681A6912F094
:10417000400F03D0DA6812F0400F32D123681A6979
:1041800012F0200F03D0DA6812F0200F30D110BDEA
:10419000FFF774FF2046FFF773FF8AE72046FFF71B
:1041A0006DFF2046FFF76CFF9BE72046FFF766FF99
:1041B0002046FFF765FFACE72046FFF75FFF20468C
:1041C000FFF75EFFBDE76FF001021A612046FEF7C0
:1041D0000FFBC1E76FF080021A61204600F08EF8F5
:1041E000C3E76FF040021A612046FFF74AFFC5E7B8
:1041F0006FF020021A61204600F07FF8C7E7000048
:1042000003681B4A90420AD0B0F1804F07D0A2F554
:104210009432904203D002F58062904203D123F0A1
:1042200070034A681343124A90420AD0B0F1804F9B
:1042300007D0A2F59432904203D002F580629042FA
:1042400003D123F44073CA68134323F080034A69FF
:10425000134303608B68C3620B688362044B98420C
:1042600002D00123436170470B690363F9E700BF84
:10427000002C0140B0B110B5044690F83D3063B158
:10428000022384F83D30214651F8040BFFF7B8FFB4
:10429000012384F83D30002010BD80F83C3001F04F
:1042A0005DF8EDE70120704790F83C30012B22D0FB
:1042B00030B4012280F83C20022380F83D300468AD
:1042C000636823F070036360046863680D682B43C0
:1042D00063600468A36823F08003A3600468A36894
:1042E00049680B43A36080F83D20002380F83C30F0
:1042F000184630BC7047022070477047704702680C
:10430000D36823F49073D3600268536923F00103E8
:104310005361202380F83A30704790F83930DBB28F
:10432000212B01D0022070478368B3F5805F17D03E
:10433000036A5A1C02621A7803685A60C38C9BB2E3
:10434000013B9BB2C3844BB90268D36823F080035E
:10435000D3600268D36843F04003D3600020704705
:10436000036A1B880268C3F30803536003691BB91F
:10437000036A02330362E1E7036A01330362DDE7A4
:104380002DE9F84305460268136923F44053C168D8
:104390000B43136183680269134342691343016845
:1043A000CA6822F4B05222F00C021343CB600268B8
:1043B000536923F4407381690B4353610268594B7D
:1043C0009A4257D000F064FD00EB800000EB8000C3
:1043D0006C68A400B0FBF4F4534EA6FB04346409EB
:1043E000270100F055FD00EB800404EB84046B68AA
:1043F0009B00B4FBF3F900F04BFD00EB800303EBF3
:1044000083036C68A400B3FBF4F4A6FB04346409D2
:104410004FF0640808FB149424013234A6FB0434E2
:10442000640904F0F0043C4400F032FD00EB80002D
:1044300000EB80006F68BF00B0FBF7F700F028FDCD
:1044400000EB800000EB80006B689B00B0FBF3F09A
:10445000A6FB0030400908FB10784FEA081808F165
:104460003208A6FB0836C6F343162B6826449E6026
:10447000BDE8F88300F01CFD00EB800000EB80003D
:104480006C68A400B0FBF4F4274EA6FB0434640966
:10449000270100F00DFD00EB800404EB84046B6841
:1044A0009B00B4FBF3F900F003FD00EB800000EB90
:1044B00080006C68A400B0FBF4F4A6FB043464092B
:1044C0004FF0640808FB149424013234A6FB043432
:1044D000640904F0F0043C4400F0EAFC00EB8000C6
:1044E00000EB80006F68BF00B0FBF7F700F0E0FC66
:1044F00000EB800000EB80006B689B00B0FBF3F0EA
:10450000A6FB0030400908FB10784FEA081808F1B4
:104510003208A6FB0836C6F343162B6826449E6075
:10452000A6E700BF003801401F85EB5158B310B516
:10453000044690F839300BB3242384F839302268CC
:10454000D36823F40053D3602046FFF719FF226895
:10455000136923F4904313612268536923F02A03FB
:1045600053612268D36843F40053D3600020E063B2
:10457000202384F8393084F83A3010BD80F8383080
:10458000FFF7AAFAD8E70120704790F83A30DBB27B
:10459000202B20D109B312B390F83830012B20D052
:1045A00081628285C2850023C363222280F83A207B
:1045B00080F838300168CA6842F48072CA600168C5
:1045C0004A6942F001024A610168CA6842F0200269
:1045D000CA601846704702207047012070470120CA
:1045E000704702207047704708B50168CA6822F01A
:1045F0004002CA60202280F83920FFF7F4FF002033
:1046000008BD08B590F83A30DBB2222B46D183685A
:10461000B3F5805F0FD003690BBB03685A68836AE8
:10462000591C81621A70C38D9BB2013B9BB2C3853A
:10463000F3B1002008BD826A036943B903685B686F
:10464000C3F308031380836A02338362EBE70368D2
:104650005B68DBB21380836A01338362E3E703683C
:104660005B68826A511C816203F07F031370DAE792
:104670000268D36823F02003D3600268D36823F470
:104680008073D3600268536923F0010353612023D0
:1046900080F83A30FEF788F80020CBE70220C9E71F
:1046A0007047000010B5044602681368D16852696B
:1046B00013F00F0005D113F0200F02D011F0200FDE
:1046C00013D128B112F0010213D111F4907F10D14F
:1046D00013F0800F02D011F0800F69D113F0400F5A
:1046E00002D011F0400F67D110BD2046FFF789FFBF
:1046F000FAE713F0010F06D011F4807F03D0E06BCE
:1047000040F00100E06313F0040F04D01AB1E06B35
:1047100040F00200E06313F0020F04D01AB1E06B26
:1047200040F00400E06313F0080F04D01AB1E26B0C
:1047300042F00802E263E26B002AD5D013F0200FAA
:1047400002D011F0200F21D123685B6903F04003F0
:10475000E26B12F0080F00D123B32046FFF7CFFD24
:1047600023685A6912F0400F18D05A6922F04002AB
:104770005A61636B73B1124A5A63606B00F0C6FCF6
:104780000028B1D0606B436B9847ADE72046FFF738
:1047900038FFD9E72046FFF783FFA5E72046FFF75C
:1047A0007FFFA1E72046FFF77BFF0023E3639BE742
:1047B0002046FFF7B2FD97E72046FFF715FF93E786
:1047C000C547000808B5406A0023C385C384FFF7C6
:1047D00067FF08BD10B504460E4B18784FF47A7386
:1047E000B3FBF0F30C4A1068B0FBF3F000F02CFDC3
:1047F00068B90F2C01D901200AE0002221464FF0B0
:10480000FF3000F0E1FC054B1C60002000E00120BF
:1048100010BD00BF640000206C0000206800002074
:1048200008B5074A136843F010031360032000F033
:10483000B9FC0020FFF7CEFFFFF7A4F9002008BD68
:1048400000200240034A1168034B1B780B4413609D
:10485000704700BFB00B002064000020014B1868B7
:10486000704700BFB00B002038B50446FFF7F6FFD5
:104870000546B4F1FF3F02D0044B1B781C44FFF700
:10488000EDFF401BA042FAD338BD00BF64000020FA
:1048900082B0084B1B68084AA2FB03235B0A00FB9B
:1048A00003F3019300BF019B5A1E0192002BF9D123
:1048B00002B070476C000020D34D621070B582B01A
:1048C0000446036813F0010F2CD0AB4B5B6803F078
:1048D0000C03042B1DD0A84B5B6803F00C03082BC2
:1048E00012D06368B3F5803F41D0002B55D103F15E
:1048F000804303F504331A6822F480321A601A6880
:1049000022F480221A6037E09B4B5B6813F4803FEF
:10491000E7D0994B1B6813F4003F03D06368002B6A
:1049200000F0AE81236813F0020F75D0924B5B68E4
:1049300013F00C0F5FD0904B5B6803F00C03082B57
:1049400054D02369002B00F089808C4B01221A601F
:10495000FFF784FF0546884B1B6813F0020F74D1E4
:10496000FFF77CFF401B0228F5D903208DE1824A26
:10497000136843F480331360636843B3FFF76EFF3B
:1049800005467D4B1B6813F4003FCBD1FFF766FF54
:10499000401B6428F5D9032077E1B3F5A02F09D097
:1049A000754B1A6822F480321A601A6822F4802249
:1049B0001A60E1E703F18043A3F53C331A6842F43F
:1049C00080221A601A6842F480321A60D4E7FFF736
:1049D00045FF0546684B1B6813F4003FA2D0FFF764
:1049E0003DFF401B6428F5D903204EE1624B5B6814
:1049F00013F4803FA5D1604B1B6813F0020F03D066
:104A00002369012B40F03E815B4A136823F0F803D1
:104A1000616943EAC1031360236813F0080F32D0C1
:104A2000A369002B45D0564B01221A60FFF716FFF1
:104A30000546514B5B6A13F0020F21D1FFF70EFFC1
:104A4000401B0228F5D903201FE14B4A136823F0CD
:104A5000F803616943EAC1031360DDE7474B0022B5
:104A60001A60FFF7FBFE0546434B1B6813F0020F6D
:104A7000D2D0FFF7F3FE401B0228F5D9032004E152
:104A80000120FFF705FF236813F0040F00F0988062
:104A9000394BDB6913F0805F1DD1374BDA6942F087
:104AA0008052DA61DB6903F080530193019B012599
:104AB00012E0334B00221A60FFF7D0FE05462E4B62
:104AC0005B6A13F0020FDED0FFF7C8FE401B02281E
:104AD000F5D90320D9E000252A4B1B6813F4807F09
:104AE00011D0E368012B22D0002B38D103F1804391
:104AF00003F504331A6A22F001021A621A6A22F0DC
:104B000004021A6218E01F4A136843F480731360AA
:104B1000FFF7A4FE06461B4B1B6813F4807FE0D111
:104B2000FFF79CFE801B6428F5D90320ADE0124AF4
:104B3000136A43F001031362E3687BB3FFF78EFE51
:104B400006460D4B1B6A13F0020F38D1FFF786FEA5
:104B5000801B41F288339842F3D9032095E0052B5E
:104B600012D0054B1A6A22F001021A621A6A22F068
:104B700004021A62E0E700BF001002400000424257
:104B80008004424200700040424B1A6A42F0040224
:104B90001A621A6A42F001021A62CDE7FFF75EFE5E
:104BA00006463C4B1B6A13F0020F08D0FFF756FE77
:104BB000801B41F288339842F3D9032065E0E5B9C0
:104BC000E369002B60D0334A526802F00C02082AD5
:104BD0005DD0022B17D0304B00221A60FFF73EFE4B
:104BE00004462C4B1B6813F0007F47D0FFF736FEBE
:104BF000001B0228F5D9032047E0264AD36923F099
:104C00008053D361DCE7244B00221A60FFF726FEB5
:104C10000546204B1B6813F0007F06D0FFF71EFEF1
:104C2000401B0228F5D903202FE0236AB3F5803F0B
:104C30001AD018494B6823F47413226A606A02433D
:104C400013434B60144B01221A60FFF707FE044622
:104C5000104B1B6813F0007F0ED1FFF7FFFD001B08
:104C60000228F5D9032010E00A4A536823F40033E0
:104C7000A1680B435360DCE7002006E0002004E05D
:104C8000012002E0012000E0002002B070BD012000
:104C9000FBE700BF001002406000424286B0164BA6
:104CA0000FCB0DF1180C0CE90F0040F20123ADF809
:104CB0000430124B5B6803F00C02082A02D0104843
:104CC00006B07047C3F38342624412F8102C13F409
:104CD000803F0CD0094B5B68C3F34043634413F837
:104CE000143C074800FB02F0B0FBF3F0E8E705488E
:104CF00000FB02F0E4E700BFDC63000800100240A4
:104D000000127A0000093D0070B504460D46594B6B
:104D10001B6803F007038B420BD2564A136823F03B
:104D200007030B431360136803F007038B4240F043
:104D30009A80236813F0020F06D04F4A536823F07D
:104D4000F003A1680B435360236813F0010F52D0A6
:104D50006368012B23D0022B28D0474A126812F037
:104D6000020F00F0828044494A6822F00302134394
:104D70004B60FFF773FD06466368012B1DD0022BC5
:104D80002AD03D4B5B6813F00C0F34D0FFF766FD63
:104D9000831B41F288329342F3D9032062E0364A02
:104DA000126812F4003FDED101205BE0324A126843
:104DB00012F0007FD7D1012054E02F4B5B6803F045
:104DC0000C03042B17D0FFF749FD831B41F28832F7
:104DD0009342F2D9032045E0274B5B6803F00C03B4
:104DE000082B08D0FFF73AFD801B41F28833984228
:104DF000F2D9032036E01F4B1B6803F00703AB42D8
:104E00000AD91C4A136823F007032B431360136865
:104E100003F00703AB422AD1236813F0040F06D036
:104E2000154A536823F4E063E1680B435360236839
:104E300013F0080F07D0104A536823F46053216918
:104E400043EAC1035360FFF729FF0B4B5B68C3F3D1
:104E500003130A4AD35CD840094B18600020FFF7BF
:104E6000B9FC002070BD0120FCE70120FAE7012019
:104E7000F8E700BF0020024000100240F063000885
:104E80006C000020014B1868704700BF6C000020C8
:104E900008B5FFF7F7FF044B5B68C3F30223034A2F
:104EA000D35CD84008BD00BF001002400064000879
:104EB00008B5FFF7E7FF044B5B68C3F3C223034A5F
:104EC000D35CD84008BD00BF001002400064000859
:104ED000F0B482B000252C46A3E07F4FBB4210D037
:104EE00007D97E4FBB420CD007F58037BB4208D0B4
:104EF00013E0A7F58017BB4203D007F57027BB422C
:104F000007D18B68002B58D0012B51D04261082566
:104F100003E0A7F58017BB42F3D0FF2E4FD884469D
:104F2000FF2E4FD8A200DCF800300F27974023EA6D
:104F3000070305FA02F21343CCF800304B6813F074
:104F4000805F6DD0664B9A6942F001029A619B695D
:104F500003F001030193019BA208971C614B53F8D6
:104F6000273004F00307BF004FF00F0C0CFA07FCCA
:104F700023EA0C0C5C4B98422AD003F580639842DC
:104F800000F08A8003F58063984200F0878003F583
:104F9000806398421AD004231BE0CD68BDE7CD683A
:104FA0000435BAE7CD680835B7E7CD680C35B4E706
:104FB00002610825B1E70025AFE70425ADE700F160
:104FC000040CADE7A4F108029200ACE7032300E073
:104FD0000023BB4043EA0C030232424F47F8223021
:104FE0004B6813F4803F5BD0404A1368334313602F
:104FF0004B6813F4003F59D03C4A53683343536025
:105000004B6813F4801F57D0384A9368334393603A
:105010004B6813F4001F55D0344AD3681E43D66042
:1050200001340F2C54D80122A2400B6803EA020677
:1050300032EA0303F4D14B68122B3FF64EAF122B2A
:105040003FF66BAF01A757F823F000BF034F0008EE
:105050009B4F0008A54F0008B74F00081B4F0008E2
:105060001B4F00081B4F00081B4F00081B4F000878
:105070001B4F00081B4F00081B4F00081B4F000868
:105080001B4F00081B4F00081B4F00081B4F000858
:105090009F4F0008AB4F000801239AE7022398E7CF
:1050A000124A136823EA06031360A1E70F4A536804
:1050B00023EA06035360A3E70C4A936823EA060336
:1050C0009360A5E7094AD36823EA0606D660A7E7F6
:1050D00002B0F0BC704700BF000022100000311089
:1050E000001002400000014000080140000401409F
:1050F0008368194201D001207047002070470AB12F
:1051000001617047090401617047000008B590F81B
:105110002130022B03D004238363012008BD0268E1
:10512000136823F00E0313600268136823F0010371
:1051300013600368194A934214D0143293421FD06B
:10514000143293421ED0143293421ED01432934232
:105150001ED01432934202D04FF0807203E04FF41D
:10516000801200E001220E4B5A60012380F82130AA
:10517000002380F82030436B6BB198470020CDE7C7
:105180001022F0E74FF48072EDE74FF48052EAE727
:105190004FF48032E7E70020C0E700BF080002407C
:1051A00000000240074AD36823F4E0631B041B0C91
:1051B000000200F4E060034343F0BF6343F40033B4
:1051C000D360704700ED00E030B4174BDB68C3F3E9
:1051D0000223C3F10704042C28BF04241D1D062D3F
:1051E00018D9033B4FF0FF3505FA04F421EA040116
:1051F000994005FA03F322EA0303194300280BDB65
:105200000901C9B200F1604000F5614080F8001367
:1052100030BC70470023E5E700F00F000901C9B278
:10522000024B1954F4E700BF00ED00E014ED00E07C
:1052300000F01F02400901239340024A42F8203047
:10524000704700BF00E100E00138B0F1807F0AD272
:10525000064B5860064AF02182F82310002098601F
:1052600007221A6070470120704700BF10E000E07D
:1052700000ED00E0042805D0054A136823F004037C
:1052800013607047024A136843F0040313607047C9
:1052900010E000E0704708B5FFF7FCFF08BD000014
:1052A0000F4B1A6842F001021A6059680D4A0A4011
:1052B0005A601A6822F0847222F480321A601A68E6
:1052C00022F480221A605A6822F4FE025A604FF4D7
:1052D0001F029A60044B4FF000629A60704700BF53
:1052E000001002400000FFF800ED00E000B587B0BC
:1052F00018484FF0804303604FF4FA734360002373
:1053000083604722C26003618361FEF7B3FF90B9F7
:105310004FF48053029302A90E48FEF72AFE78B993
:1053200000230093019369460A48FEF7BDFF60B968
:1053300007B05DF804FB3F210748FEF71DF8E7E7DB
:1053400045210548FEF718F8EAE74C210248FEF728
:1053500013F8EDE7B40B0020086400080368B3F10C
:10536000804F00D0704700B583B003F50433DA698D
:1053700042F00102DA61DB6903F001030193019B52
:10538000002211461C20FFF71FFF1C20FFF750FFD3
:1053900003B05DF804FB0000002103E00B4B5B58F9
:1053A000435004310A480B4B42189A42F6D30A4A3A
:1053B00002E0002342F8043B084B9A42F9D3FFF77E
:1053C0006FFFFAF7F1FEFEF71DF87047E46400087E
:1053D000000000207000002070000020F80B00206A
:1053E000FEE70000F8B500BFF8BC08BC9E46704759
:0C53F000F8B500BFF8BC08BC9E46704732
:1053FC00000000000400002000202020202020209D
:10540C002020282828282820202020202020202068
:10541C002020202020202020208810101010101078
:10542C0010101010101010101004040404040404C4
:10543C00040404101010101010104141414141415E
:10544C000101010101010101010101010101010140
:10545C000101010110101010101042424242424250
:10546C000202020202020202020202020202020210
:10547C0002020202101010102000000000000000B8
:10548C000000000000000000000000000000000010
:10549C000000000000000000000000000000000000
:1054AC0000000000000000000000000000000000F0
:1054BC0000000000000000000000000000000000E0
:1054CC0000000000000000000000000000000000D0
:1054DC0000000000000000000000000000000000C0
:1054EC0000000000000000000000000000000000B0
:1054FC0000000000000000000000000000000000A0
:10550C00000000000000000000000000000000008F
:10551C00000000000000000000000000000000007F
:10552C00000000000000000000000000000000006F
:10553C00000000000000000000000000000000005F
:10554C00000000000000000000000000000000004F
:10555C000000000000000000000000005345545FF4
:10556C00444F54004C494748540000005345545F85
:10557C00414C4C005345545F4255464600000000D8
:10558C005245465245534800544558545F544F5069
:10559C0000000000544558545F43454E544552009A
:1055AC00544558545F424F54544F4D005372632F1F
:1055BC006D61696E2E6300000000000000000000A9
:1055CC007E8195B1B195817E7EFFEBCFCFEBFF7ED7
:1055DC000E1F3F7E3F1F0E00081C3E7F3E1C080026
:1055EC00383A9FFF9F3A38001038BCFFBC38100087
:1055FC000000183C3C180000FFFFE7C3C3E7FFFFA7
:10560C00003C664242663C00FFC399BDBD99C3FF96
:10561C0070F88888FD7F070F004E5FF1F15F4E0038
:10562C00C0E0FF7F05050707C0FF7F0505657F3FCD
:10563C005A5A3CE7E73C5A5A7F3E3E1C1C0808006D
:10564C0008081C1C3E3E7F00002466FFFF662400F9
:10565C00005F5F00005F5F00060F097F7F017F7FA7
:10566C0040DABFA5FD5903020070707070707000B5
:10567C008094B6FFFFB694800004067F7F0604007A
:10568C000010307F7F3010000808082A3E1C0800EC
:10569C00081C3E2A080808003C3C20202020200042
:1056AC00081C3E08083E1C0830383C3E3E3C383056
:1056BC00060E1E3E3E1E0E060000000000000000FE
:1056CC0000065F5F060000000007070007070000E8
:1056DC00147F7F147F7F1400242E6B6B3A12000012
:1056EC00466630180C666200307A4F5D377A480097
:1056FC000407030000000000001C3E634100000092
:10570C000041633E1C000000082A3E1C1C3E2A0877
:10571C0008083E3E080800000080E0600000000021
:10572C00080808080808000000006060000000007D
:10573C006030180C060301003E7F4149417F3E005A
:10574C0040427F7F40400000627359496F66000001
:10575C00226349497F360000181C16537F7F500086
:10576C00276745457D3900003C7E4B497930000068
:10577C00030371790F070000367F49497F3600001B
:10578C00064F49693F1E00000000666600000000DD
:10579C000080E66600000000081C36634100000033
:1057AC002424242424240000004163361C08000017
:1057BC00020351590F0600003E7F415D5D1F1E0024
:1057CC007C7E13137E7C0000417F7F49497F36002D
:1057DC001C3E634141632200417F7F41633E1C00BC
:1057EC00417F7F495D416300417F7F491D0103007B
:1057FC001C3E6341517372007F7F08087F7F00005D
:10580C0000417F7F41000000307040417F3F01002C
:10581C00417F7F081C776300417F7F4140607000AF
:10582C007F7F0E1C0E7F7F007F7F060C187F7F0012
:10583C001C3E6341633E1C00417F7F49090F0600FB
:10584C001E3F21717F5E0000417F7F09197F66003A
:10585C0022674D597322000003417F7F41030000F2
:10586C007F7F40407F7F00001F3F60603F1F000034
:10587C007F7F3018307F7F0043673C183C674300C4
:10588C00074F78784F070000476371594D677300D5
:10589C00007F7F41410000000103060C18306000BE
:1058AC000041417F7F000000080C0603060C080035
:1058BC0080808080808080800000030704000000CE
:1058CC00207454543C784000417F3F484878300065
:1058DC00387C44446C280000307848493F7F4000B5
:1058EC00387C54545C180000487E7F490302000049
:1058FC0098BCA4A4F87C0400417F7F08047C780049
:10590C0000447D7D4000000060E08080FD7D000053
:10591C00417F7F10386C440000417F7F40000000C5
:10592C007C7C18381C7C78007C7C04047C7800001F
:10593C00387C44447C38000084FCF8A4243C1800D7
:10594C00183C24A4F8FC8400447C784C041C1800FB
:10595C00485C54547424000000043E7F442400002E
:10596C003C7C40403C7C40001C3C60603C1C00008B
:10597C003C7C7038707C3C00446C3810386C4400B3
:10598C009CBCA0A0FC7C00004C64745C4C640000CB
:10599C0008083E77414100000000007777000000C6
:1059AC004141773E08080000020301030203010095
:1059BC0070784C464C7870000E9F91B1FB4A0000F9
:1059CC003A7A40407A7A4000387C54555D19000090
:1059DC0002237555557D7B42217554547D794000C9
:1059EC00217555547C784000207457577C784000C2
:1059FC00183CA4A4E4400000023B7D55555D1B02FD
:105A0C00397D54545D190000397D55545C180000E3
:105A1C0001457C7C410100000203457D7D43020071
:105A2C0001457D7C40000000797D1612167D7900C1
:105A3C00787C1515157C7800447C7C555545000008
:105A4C007054547C54545C007C7E0B097F7F49005D
:105A5C00327B49497B320000327A48487A32000066
:105A6C00327A4A48783000003A7B41417B7A4000D8
:105A7C003A7A4240787840009ABAA0A0FA7A0000AC
:105A8C0001193C66663C19013D7D40407D3D00009E
:105A9C00B87C64544C7C3A00687E7F494366200095
:105AAC003E7F71594D7F3E00417F7F4140647400C1
:105ABC0000417F7F40040400207454557D794000E0
:105ACC0000447D7D410000003078484A7A32000065
